{
  "contractName": "Accounting",
  "abi": [
    {
      "inputs": [
        {
          "internalType": "uint256",
          "name": "",
          "type": "uint256"
        }
      ],
      "name": "accountIds",
      "outputs": [
        {
          "internalType": "uint256",
          "name": "",
          "type": "uint256"
        }
      ],
      "stateMutability": "view",
      "type": "function"
    },
    {
      "inputs": [
        {
          "internalType": "uint256",
          "name": "",
          "type": "uint256"
        }
      ],
      "name": "inventoryIds",
      "outputs": [
        {
          "internalType": "uint256",
          "name": "",
          "type": "uint256"
        }
      ],
      "stateMutability": "view",
      "type": "function"
    },
    {
      "inputs": [
        {
          "internalType": "string",
          "name": "newAccountType",
          "type": "string"
        },
        {
          "internalType": "string",
          "name": "newAccountName",
          "type": "string"
        },
        {
          "internalType": "uint256",
          "name": "newCode",
          "type": "uint256"
        },
        {
          "internalType": "string",
          "name": "newDescription",
          "type": "string"
        },
        {
          "internalType": "uint256",
          "name": "newAccountValueType",
          "type": "uint256"
        }
      ],
      "name": "registerAccount",
      "outputs": [],
      "stateMutability": "nonpayable",
      "type": "function"
    },
    {
      "inputs": [
        {
          "internalType": "uint256",
          "name": "code",
          "type": "uint256"
        }
      ],
      "name": "getAccountType",
      "outputs": [
        {
          "internalType": "string",
          "name": "",
          "type": "string"
        }
      ],
      "stateMutability": "view",
      "type": "function"
    },
    {
      "inputs": [
        {
          "internalType": "uint256",
          "name": "code",
          "type": "uint256"
        }
      ],
      "name": "getAccountDescription",
      "outputs": [
        {
          "internalType": "string",
          "name": "",
          "type": "string"
        }
      ],
      "stateMutability": "view",
      "type": "function"
    },
    {
      "inputs": [
        {
          "internalType": "uint256",
          "name": "code",
          "type": "uint256"
        }
      ],
      "name": "getAccountValue",
      "outputs": [
        {
          "internalType": "int256",
          "name": "",
          "type": "int256"
        }
      ],
      "stateMutability": "view",
      "type": "function"
    },
    {
      "inputs": [
        {
          "internalType": "uint256",
          "name": "code",
          "type": "uint256"
        },
        {
          "internalType": "int256",
          "name": "amount",
          "type": "int256"
        },
        {
          "internalType": "uint256",
          "name": "drcr",
          "type": "uint256"
        }
      ],
      "name": "changeAccountValue",
      "outputs": [],
      "stateMutability": "nonpayable",
      "type": "function"
    },
    {
      "inputs": [
        {
          "internalType": "uint256",
          "name": "code",
          "type": "uint256"
        }
      ],
      "name": "getAccountName",
      "outputs": [
        {
          "internalType": "string",
          "name": "",
          "type": "string"
        }
      ],
      "stateMutability": "view",
      "type": "function"
    },
    {
      "inputs": [],
      "name": "getAccounts",
      "outputs": [
        {
          "internalType": "uint256[]",
          "name": "",
          "type": "uint256[]"
        }
      ],
      "stateMutability": "view",
      "type": "function"
    },
    {
      "inputs": [
        {
          "internalType": "string",
          "name": "newInventoryName",
          "type": "string"
        },
        {
          "internalType": "uint256",
          "name": "newQuantity",
          "type": "uint256"
        },
        {
          "internalType": "uint256",
          "name": "newInventoryNumber",
          "type": "uint256"
        },
        {
          "internalType": "uint256",
          "name": "newSalesPrice",
          "type": "uint256"
        },
        {
          "internalType": "uint256",
          "name": "newPurchasePrice",
          "type": "uint256"
        }
      ],
      "name": "registerInventory",
      "outputs": [],
      "stateMutability": "nonpayable",
      "type": "function"
    },
    {
      "inputs": [
        {
          "internalType": "uint256",
          "name": "code",
          "type": "uint256"
        },
        {
          "internalType": "uint256",
          "name": "newQuantity",
          "type": "uint256"
        },
        {
          "internalType": "uint256",
          "name": "newSalesPrice",
          "type": "uint256"
        },
        {
          "internalType": "uint256",
          "name": "newPurchasePrice",
          "type": "uint256"
        }
      ],
      "name": "updateInventory",
      "outputs": [],
      "stateMutability": "nonpayable",
      "type": "function"
    },
    {
      "inputs": [
        {
          "internalType": "uint256",
          "name": "code",
          "type": "uint256"
        }
      ],
      "name": "getPurchasePrice",
      "outputs": [
        {
          "internalType": "uint256",
          "name": "",
          "type": "uint256"
        }
      ],
      "stateMutability": "view",
      "type": "function"
    },
    {
      "inputs": [
        {
          "internalType": "uint256",
          "name": "code",
          "type": "uint256"
        }
      ],
      "name": "getSalesPrice",
      "outputs": [
        {
          "internalType": "uint256",
          "name": "",
          "type": "uint256"
        }
      ],
      "stateMutability": "view",
      "type": "function"
    },
    {
      "inputs": [
        {
          "internalType": "uint256",
          "name": "code",
          "type": "uint256"
        }
      ],
      "name": "getInventoryNumber",
      "outputs": [
        {
          "internalType": "uint256",
          "name": "",
          "type": "uint256"
        }
      ],
      "stateMutability": "view",
      "type": "function"
    },
    {
      "inputs": [
        {
          "internalType": "uint256",
          "name": "code",
          "type": "uint256"
        }
      ],
      "name": "getInventoryQuantity",
      "outputs": [
        {
          "internalType": "uint256",
          "name": "",
          "type": "uint256"
        }
      ],
      "stateMutability": "view",
      "type": "function"
    },
    {
      "inputs": [
        {
          "internalType": "uint256",
          "name": "code",
          "type": "uint256"
        }
      ],
      "name": "getInventoryName",
      "outputs": [
        {
          "internalType": "string",
          "name": "",
          "type": "string"
        }
      ],
      "stateMutability": "view",
      "type": "function"
    },
    {
      "inputs": [],
      "name": "getInventories",
      "outputs": [
        {
          "internalType": "uint256[]",
          "name": "",
          "type": "uint256[]"
        }
      ],
      "stateMutability": "view",
      "type": "function"
    },
    {
      "inputs": [],
      "name": "getMessage",
      "outputs": [
        {
          "internalType": "string",
          "name": "",
          "type": "string"
        }
      ],
      "stateMutability": "view",
      "type": "function"
    },
    {
      "inputs": [
        {
          "internalType": "string",
          "name": "newMessage",
          "type": "string"
        }
      ],
      "name": "setMessage",
      "outputs": [],
      "stateMutability": "nonpayable",
      "type": "function"
    }
  ],
  "bytecode": "0x60806040526040518060400160405280600b81526020017f68656c6c6f20776f726c64000000000000000000000000000000000000000000815250600090805190602001906200005192919062000066565b503480156200005f57600080fd5b5062000115565b828054600181600116156101000203166002900490600052602060002090601f016020900481019282601f10620000a957805160ff1916838001178555620000da565b82800160010185558215620000da579182015b82811115620000d9578251825591602001919060010190620000bc565b5b509050620000e99190620000ed565b5090565b6200011291905b808211156200010e576000816000905550600101620000f4565b5090565b90565b6112f480620001256000396000f3fe608060405234801561001057600080fd5b50600436106101215760003560e01c80638a48ac03116100ad578063d13f8d8c11610071578063d13f8d8c146106ef578063e1443b1a14610731578063eaa7346f146107d8578063eca591341461081a578063f62fe8d5146108fd57610121565b80638a48ac03146104d85780639a19299f14610537578063b14e13a3146105de578063c59d56331461062a578063ce6d41de1461066c57610121565b80632f005277116100f45780632f0052771461024b5780632ff3a035146102f257806333c24bd314610399578063368b8772146103db5780635a0b27e51461049657610121565b806306dc1974146101265780632322c90a146101685780632b421d50146101aa5780632c6c18af146101ec575b600080fd5b6101526004803603602081101561013c57600080fd5b8101908080359060200190929190505050610afa565b6040518082815260200191505060405180910390f35b6101946004803603602081101561017e57600080fd5b8101908080359060200190929190505050610b1f565b6040518082815260200191505060405180910390f35b6101d6600480360360208110156101c057600080fd5b8101908080359060200190929190505050610b40565b6040518082815260200191505060405180910390f35b6101f4610b65565b6040518080602001828103825283818151815260200191508051906020019060200280838360005b8381101561023757808201518184015260208101905061021c565b505050509050019250505060405180910390f35b6102776004803603602081101561026157600080fd5b8101908080359060200190929190505050610bbd565b6040518080602001828103825283818151815260200191508051906020019080838360005b838110156102b757808201518184015260208101905061029c565b50505050905090810190601f1680156102e45780820380516001836020036101000a031916815260200191505b509250505060405180910390f35b61031e6004803603602081101561030857600080fd5b8101908080359060200190929190505050610c7b565b6040518080602001828103825283818151815260200191508051906020019080838360005b8381101561035e578082015181840152602081019050610343565b50505050905090810190601f16801561038b5780820380516001836020036101000a031916815260200191505b509250505060405180910390f35b6103c5600480360360208110156103af57600080fd5b8101908080359060200190929190505050610d39565b6040518082815260200191505060405180910390f35b610494600480360360208110156103f157600080fd5b810190808035906020019064010000000081111561040e57600080fd5b82018360208201111561042057600080fd5b8035906020019184600183028401116401000000008311171561044257600080fd5b91908080601f016020809104026020016040519081016040528093929190818152602001838380828437600081840152601f19601f820116905080830192505050505050509192919290505050610d5a565b005b6104c2600480360360208110156104ac57600080fd5b8101908080359060200190929190505050610d74565b6040518082815260200191505060405180910390f35b6104e0610d99565b6040518080602001828103825283818151815260200191508051906020019060200280838360005b83811015610523578082015181840152602081019050610508565b505050509050019250505060405180910390f35b6105636004803603602081101561054d57600080fd5b8101908080359060200190929190505050610df1565b6040518080602001828103825283818151815260200191508051906020019080838360005b838110156105a3578082015181840152602081019050610588565b50505050905090810190601f1680156105d05780820380516001836020036101000a031916815260200191505b509250505060405180910390f35b610628600480360360808110156105f457600080fd5b8101908080359060200190929190803590602001909291908035906020019092919080359060200190929190505050610eaf565b005b6106566004803603602081101561064057600080fd5b8101908080359060200190929190505050610ee8565b6040518082815260200191505060405180910390f35b610674610f0d565b6040518080602001828103825283818151815260200191508051906020019080838360005b838110156106b4578082015181840152602081019050610699565b50505050905090810190601f1680156106e15780820380516001836020036101000a031916815260200191505b509250505060405180910390f35b61072f6004803603606081101561070557600080fd5b81019080803590602001909291908035906020019092919080359060200190929190505050610faf565b005b61075d6004803603602081101561074757600080fd5b8101908080359060200190929190505050611002565b6040518080602001828103825283818151815260200191508051906020019080838360005b8381101561079d578082015181840152602081019050610782565b50505050905090810190601f1680156107ca5780820380516001836020036101000a031916815260200191505b509250505060405180910390f35b610804600480360360208110156107ee57600080fd5b81019080803590602001909291905050506110c0565b6040518082815260200191505060405180910390f35b6108fb600480360360a081101561083057600080fd5b810190808035906020019064010000000081111561084d57600080fd5b82018360208201111561085f57600080fd5b8035906020019184600183028401116401000000008311171561088157600080fd5b91908080601f016020809104026020016040519081016040528093929190818152602001838380828437600081840152601f19601f820116905080830192505050505050509192919290803590602001909291908035906020019092919080359060200190929190803590602001909291905050506110e5565b005b610af8600480360360a081101561091357600080fd5b810190808035906020019064010000000081111561093057600080fd5b82018360208201111561094257600080fd5b8035906020019184600183028401116401000000008311171561096457600080fd5b91908080601f016020809104026020016040519081016040528093929190818152602001838380828437600081840152601f19601f820116905080830192505050505050509192919290803590602001906401000000008111156109c757600080fd5b8201836020820111156109d957600080fd5b803590602001918460018302840111640100000000831117156109fb57600080fd5b91908080601f016020809104026020016040519081016040528093929190818152602001838380828437600081840152601f19601f8201169050808301925050505050505091929192908035906020019092919080359060200190640100000000811115610a6857600080fd5b820183602082011115610a7a57600080fd5b80359060200191846001830284011164010000000083111715610a9c57600080fd5b91908080601f016020809104026020016040519081016040528093929190818152602001838380828437600081840152601f19601f8201169050808301925050505050505091929192908035906020019092919050505061116a565b005b6000806001600084815260200190815260200160002090508060020154915050919050565b60048181548110610b2c57fe5b906000526020600020016000915090505481565b6000806003600084815260200190815260200160002090508060010154915050919050565b60606004805480602002602001604051908101604052809291908181526020018280548015610bb357602002820191906000526020600020905b815481526020019060010190808311610b9f575b5050505050905090565b60606000600160008481526020019081526020016000209050806004018054600181600116156101000203166002900480601f016020809104026020016040519081016040528092919081815260200182805460018160011615610100020316600290048015610c6e5780601f10610c4357610100808354040283529160200191610c6e565b820191906000526020600020905b815481529060010190602001808311610c5157829003601f168201915b5050505050915050919050565b60606000600360008481526020019081526020016000209050806000018054600181600116156101000203166002900480601f016020809104026020016040519081016040528092919081815260200182805460018160011615610100020316600290048015610d2c5780601f10610d0157610100808354040283529160200191610d2c565b820191906000526020600020905b815481529060010190602001808311610d0f57829003601f168201915b5050505050915050919050565b60028181548110610d4657fe5b906000526020600020016000915090505481565b8060009080519060200190610d70929190611219565b5050565b6000806003600084815260200190815260200160002090508060030154915050919050565b60606002805480602002602001604051908101604052809291908181526020018280548015610de757602002820191906000526020600020905b815481526020019060010190808311610dd3575b5050505050905090565b60606000600160008481526020019081526020016000209050806000018054600181600116156101000203166002900480601f016020809104026020016040519081016040528092919081815260200182805460018160011615610100020316600290048015610ea25780601f10610e7757610100808354040283529160200191610ea2565b820191906000526020600020905b815481529060010190602001808311610e8557829003601f168201915b5050505050915050919050565b60006003600086815260200190815260200160002090508381600101819055508281600301819055508181600401819055505050505050565b6000806003600084815260200190815260200160002090508060040154915050919050565b606060008054600181600116156101000203166002900480601f016020809104026020016040519081016040528092919081815260200182805460018160011615610100020316600290048015610fa55780601f10610f7a57610100808354040283529160200191610fa5565b820191906000526020600020905b815481529060010190602001808311610f8857829003601f168201915b5050505050905090565b60006001600085815260200190815260200160002090508060050154821415610fe957828160020160008282540192505081905550610ffc565b8281600201600082825403925050819055505b50505050565b60606000600160008481526020019081526020016000209050806001018054600181600116156101000203166002900480601f0160208091040260200160405190810160405280929190818152602001828054600181600116156101000203166002900480156110b35780601f10611088576101008083540402835291602001916110b3565b820191906000526020600020905b81548152906001019060200180831161109657829003601f168201915b5050505050915050919050565b6000806003600084815260200190815260200160002090508060020154915050919050565b600060036000858152602001908152602001600020905085816000019080519060200190611114929190611219565b508481600101819055508381600201819055508281600301819055508181600401819055506004849080600181540180825580915050600190039060005260206000200160009091909190915055505050505050565b600060016000858152602001908152602001600020905085816000019080519060200190611199929190611219565b50848160010190805190602001906111b2929190611219565b5083816003018190555060008160020181905550828160040190805190602001906111de929190611219565b508181600501819055506002849080600181540180825580915050600190039060005260206000200160009091909190915055505050505050565b828054600181600116156101000203166002900490600052602060002090601f016020900481019282601f1061125a57805160ff1916838001178555611288565b82800160010185558215611288579182015b8281111561128757825182559160200191906001019061126c565b5b5090506112959190611299565b5090565b6112bb91905b808211156112b757600081600090555060010161129f565b5090565b9056fea264697066735822122025a774b637f20560af4765f894bf0341de55f690a402f1fede475d0b19efde3364736f6c63430006090033",
  "immutableReferences": {},
  "source": "pragma solidity 0.6.9;\n\ncontract HelloWorld {\n    string private message = \"hello world\";\n\n    struct accountInfo {\n        string accountType;\n        string accountName;\n        int256 value;\n        uint256 code;\n        string accountDescription;\n        uint256 accountValueType;\n    }\n\n    struct inventoryInfo{\n        string inventoryName;\n        uint256 quantity;\n        uint256 inventoryNumber;\n        uint256 salesPrice;\n        uint256 purchasePrice;\n    }\n\n    mapping(uint256 => accountInfo) accounts;\n    uint256[] public accountIds;\n\n    mapping(uint256 => inventoryInfo) inventories;\n    uint256[] public inventoryIds;\n\n    function registerAccount(string memory newAccountType, string memory newAccountName,\n                            uint256 newCode, string memory newDescription, uint256 newAccountValueType) public {\n        accountInfo storage newAccount = accounts[newCode];\n        newAccount.accountType = newAccountType;\n        newAccount.accountName = newAccountName;\n        newAccount.code = newCode;\n        newAccount.value = 0;\n        newAccount.accountDescription = newDescription;\n        newAccount.accountValueType = newAccountValueType;\n        accountIds.push(newCode);  \n    }\n\n    function getAccountType(uint256 code) public view returns(string memory){\n        accountInfo storage a = accounts[code];\n        return (a.accountType);\n    }\n\n    function getAccountDescription(uint256 code) public view returns(string memory){\n        accountInfo storage a = accounts[code];\n        return (a.accountDescription);\n    }\n\n    function getAccountValue(uint256 code) public view returns(int256)\n    {\n        accountInfo storage a = accounts[code];\n        return (a.value);\n    }\n\n    function changeAccountValue(uint256 code, int256 amount, uint256 drcr) public\n    {\n        accountInfo storage a = accounts[code];\n        if(drcr == a.accountValueType)\n        {\n            a.value += amount;\n        }\n        else\n        {\n            a.value -= amount;\n        }\n    }\n\n    function getAccountName(uint256 code) public view returns(string memory){\n        accountInfo storage a = accounts[code];\n        return (a.accountName);\n    }\n\n    function getAccounts() public view returns(uint256[] memory)\n    {\n        return accountIds;\n    }\n\n    function registerInventory(string memory newInventoryName, uint256 newQuantity, uint256 newInventoryNumber, \n                                uint256 newSalesPrice, uint256 newPurchasePrice) public {\n        inventoryInfo storage newInventory = inventories[newInventoryNumber];\n        newInventory.inventoryName = newInventoryName;\n        newInventory.quantity = newQuantity;\n        newInventory.inventoryNumber = newInventoryNumber;\n        newInventory.salesPrice = newSalesPrice;\n        newInventory.purchasePrice = newPurchasePrice;\n        inventoryIds.push(newInventoryNumber); \n    }\n\n    function updateInventory(uint256 code, uint256 newQuantity, uint newSalesPrice, uint newPurchasePrice) public {\n        inventoryInfo storage a = inventories[code];\n        a.quantity = newQuantity;\n        a.salesPrice = newSalesPrice;\n        a.purchasePrice = newPurchasePrice;\n    }\n\n\n    function getPurchasePrice(uint256 code) public view returns(uint256){\n        inventoryInfo storage a = inventories[code];\n        return (a.purchasePrice);\n    }\n\n    function getSalesPrice(uint256 code) public view returns(uint256){\n        inventoryInfo storage a = inventories[code];\n        return (a.salesPrice);\n    }\n\n    function getInventoryNumber(uint256 code) public view returns(uint256){\n        inventoryInfo storage a = inventories[code];\n        return (a.inventoryNumber);\n    }\n\n    function getInventoryQuantity(uint256 code) public view returns(uint256){\n        inventoryInfo storage a = inventories[code];\n        return (a.quantity);\n    }\n\n    function getInventoryName(uint256 code) public view returns(string memory){\n        inventoryInfo storage a = inventories[code];\n        return (a.inventoryName);\n    }\n\n    function getInventories() public view returns(uint256[] memory)\n    {\n        return inventoryIds;\n    }\n\n    function getMessage() public view returns(string memory) {\n        return message;\n    }\n\n    function setMessage(string memory newMessage) public {\n        message = newMessage;\n    }\n}\n\n",
  "sourcePath": "C:/Users/conno/Documents/TestBlockchain/contracts/Accounting.sol",
  "compiler": {
    "name": "solc",
    "version": "0.6.9+commit.3e3065ac.Emscripten.clang"
  },
  "schemaVersion": "3.2.5",
  "updatedAt": "2020-10-29T01:36:43.273Z",
  "devdoc": {
    "methods": {}
  },
  "userdoc": {
    "methods": {}
  }
}